{
  "_format": "hh3-artifact-1",
  "contractName": "MockDisputeContract",
  "sourceName": "contracts/MockDisputeContract.sol",
  "abi": [
    {
      "inputs": [
        {
          "internalType": "enum DisputeResult",
          "name": "result",
          "type": "uint8"
        }
      ],
      "name": "setResult",
      "outputs": [],
      "stateMutability": "nonpayable",
      "type": "function"
    },
    {
      "inputs": [
        {
          "internalType": "uint256",
          "name": "",
          "type": "uint256"
        },
        {
          "internalType": "bytes32",
          "name": "",
          "type": "bytes32"
        },
        {
          "internalType": "address",
          "name": "",
          "type": "address"
        }
      ],
      "name": "submitDispute",
      "outputs": [
        {
          "internalType": "enum DisputeResult",
          "name": "",
          "type": "uint8"
        }
      ],
      "stateMutability": "view",
      "type": "function"
    }
  ],
  "bytecode": "0x60806040525f805460ff19166001179055348015601a575f5ffd5b50610178806100285f395ff3fe608060405234801561000f575f5ffd5b5060043610610034575f3560e01c806380ce60d114610038578063eefce1161461004d575b5f5ffd5b61004b6100463660046100a2565b61007d565b005b61006761005b3660046100c7565b5f5460ff169392505050565b604051610074919061011c565b60405180910390f35b5f805482919060ff19166001838181111561009a5761009a610108565b021790555050565b5f602082840312156100b2575f5ffd5b8135600281106100c0575f5ffd5b9392505050565b5f5f5f606084860312156100d9575f5ffd5b833592506020840135915060408401356001600160a01b03811681146100fd575f5ffd5b809150509250925092565b634e487b7160e01b5f52602160045260245ffd5b602081016002831061013c57634e487b7160e01b5f52602160045260245ffd5b9190529056fea264697066735822122093aad46647254d5e76f7918f31702e5db3dcea1d5323fc3ab55b036f7b9d246064736f6c634300081c0033",
  "linkReferences": {},
  "deployedLinkReferences": {},
  "immutableReferences": {},
  "inputSourceName": "project/contracts/MockDisputeContract.sol",
  "buildInfoId": "solc-0_8_28-5fe6cf97430fced5a5022463f1011f38f87fcfab"
}