{
  "_format": "hh3-artifact-1",
  "contractName": "Bounty",
  "sourceName": "contracts/Bounty.sol",
  "abi": [
    {
      "inputs": [
        {
          "internalType": "address",
          "name": "_disputeContract",
          "type": "address"
        }
      ],
      "stateMutability": "payable",
      "type": "constructor"
    },
    {
      "anonymous": false,
      "inputs": [],
      "name": "BountyCancelled",
      "type": "event"
    },
    {
      "anonymous": false,
      "inputs": [
        {
          "indexed": true,
          "internalType": "uint256",
          "name": "reportId",
          "type": "uint256"
        },
        {
          "indexed": true,
          "internalType": "address",
          "name": "hunter",
          "type": "address"
        }
      ],
      "name": "BountyClosed",
      "type": "event"
    },
    {
      "anonymous": false,
      "inputs": [
        {
          "indexed": true,
          "internalType": "address",
          "name": "company",
          "type": "address"
        },
        {
          "indexed": false,
          "internalType": "uint256",
          "name": "reward",
          "type": "uint256"
        }
      ],
      "name": "BountyCreated",
      "type": "event"
    },
    {
      "anonymous": false,
      "inputs": [
        {
          "indexed": true,
          "internalType": "uint256",
          "name": "reportId",
          "type": "uint256"
        },
        {
          "indexed": false,
          "internalType": "enum DisputeResult",
          "name": "result",
          "type": "uint8"
        }
      ],
      "name": "DisputeResolved",
      "type": "event"
    },
    {
      "anonymous": false,
      "inputs": [
        {
          "indexed": true,
          "internalType": "uint256",
          "name": "reportId",
          "type": "uint256"
        },
        {
          "indexed": true,
          "internalType": "address",
          "name": "hunter",
          "type": "address"
        }
      ],
      "name": "ReportAccepted",
      "type": "event"
    },
    {
      "anonymous": false,
      "inputs": [
        {
          "indexed": true,
          "internalType": "uint256",
          "name": "reportId",
          "type": "uint256"
        },
        {
          "indexed": true,
          "internalType": "address",
          "name": "hunter",
          "type": "address"
        }
      ],
      "name": "ReportDisputed",
      "type": "event"
    },
    {
      "anonymous": false,
      "inputs": [
        {
          "indexed": true,
          "internalType": "uint256",
          "name": "reportId",
          "type": "uint256"
        },
        {
          "indexed": true,
          "internalType": "address",
          "name": "hunter",
          "type": "address"
        }
      ],
      "name": "ReportRejected",
      "type": "event"
    },
    {
      "anonymous": false,
      "inputs": [
        {
          "indexed": true,
          "internalType": "uint256",
          "name": "reportId",
          "type": "uint256"
        },
        {
          "indexed": true,
          "internalType": "address",
          "name": "hunter",
          "type": "address"
        }
      ],
      "name": "ReportSubmitted",
      "type": "event"
    },
    {
      "inputs": [],
      "name": "DISPUTE_WINDOW",
      "outputs": [
        {
          "internalType": "uint256",
          "name": "",
          "type": "uint256"
        }
      ],
      "stateMutability": "view",
      "type": "function"
    },
    {
      "inputs": [
        {
          "internalType": "uint256",
          "name": "reportId",
          "type": "uint256"
        }
      ],
      "name": "acceptReport",
      "outputs": [],
      "stateMutability": "nonpayable",
      "type": "function"
    },
    {
      "inputs": [],
      "name": "activeReports",
      "outputs": [
        {
          "internalType": "uint8",
          "name": "",
          "type": "uint8"
        }
      ],
      "stateMutability": "view",
      "type": "function"
    },
    {
      "inputs": [],
      "name": "cancelBounty",
      "outputs": [],
      "stateMutability": "nonpayable",
      "type": "function"
    },
    {
      "inputs": [],
      "name": "company",
      "outputs": [
        {
          "internalType": "address",
          "name": "",
          "type": "address"
        }
      ],
      "stateMutability": "view",
      "type": "function"
    },
    {
      "inputs": [],
      "name": "disputeContract",
      "outputs": [
        {
          "internalType": "contract IDisputeContract",
          "name": "",
          "type": "address"
        }
      ],
      "stateMutability": "view",
      "type": "function"
    },
    {
      "inputs": [
        {
          "internalType": "uint256",
          "name": "reportId",
          "type": "uint256"
        }
      ],
      "name": "disputeReport",
      "outputs": [],
      "stateMutability": "nonpayable",
      "type": "function"
    },
    {
      "inputs": [],
      "name": "getBalance",
      "outputs": [
        {
          "internalType": "uint256",
          "name": "",
          "type": "uint256"
        }
      ],
      "stateMutability": "view",
      "type": "function"
    },
    {
      "inputs": [
        {
          "internalType": "uint256",
          "name": "reportId",
          "type": "uint256"
        }
      ],
      "name": "getReport",
      "outputs": [
        {
          "components": [
            {
              "internalType": "address",
              "name": "hunter",
              "type": "address"
            },
            {
              "internalType": "bytes32",
              "name": "hash",
              "type": "bytes32"
            },
            {
              "internalType": "enum Bounty.ReportStatus",
              "name": "status",
              "type": "uint8"
            },
            {
              "internalType": "uint256",
              "name": "timestamp",
              "type": "uint256"
            },
            {
              "internalType": "uint256",
              "name": "rejectedAt",
              "type": "uint256"
            }
          ],
          "internalType": "struct Bounty.Report",
          "name": "",
          "type": "tuple"
        }
      ],
      "stateMutability": "view",
      "type": "function"
    },
    {
      "inputs": [],
      "name": "lastRejectedAt",
      "outputs": [
        {
          "internalType": "uint256",
          "name": "",
          "type": "uint256"
        }
      ],
      "stateMutability": "view",
      "type": "function"
    },
    {
      "inputs": [],
      "name": "oldestPendingReport",
      "outputs": [
        {
          "internalType": "uint256",
          "name": "",
          "type": "uint256"
        }
      ],
      "stateMutability": "view",
      "type": "function"
    },
    {
      "inputs": [
        {
          "internalType": "uint256",
          "name": "reportId",
          "type": "uint256"
        }
      ],
      "name": "rejectReport",
      "outputs": [],
      "stateMutability": "nonpayable",
      "type": "function"
    },
    {
      "inputs": [],
      "name": "reportCount",
      "outputs": [
        {
          "internalType": "uint256",
          "name": "",
          "type": "uint256"
        }
      ],
      "stateMutability": "view",
      "type": "function"
    },
    {
      "inputs": [
        {
          "internalType": "uint256",
          "name": "",
          "type": "uint256"
        }
      ],
      "name": "reports",
      "outputs": [
        {
          "internalType": "address",
          "name": "hunter",
          "type": "address"
        },
        {
          "internalType": "bytes32",
          "name": "hash",
          "type": "bytes32"
        },
        {
          "internalType": "enum Bounty.ReportStatus",
          "name": "status",
          "type": "uint8"
        },
        {
          "internalType": "uint256",
          "name": "timestamp",
          "type": "uint256"
        },
        {
          "internalType": "uint256",
          "name": "rejectedAt",
          "type": "uint256"
        }
      ],
      "stateMutability": "view",
      "type": "function"
    },
    {
      "inputs": [],
      "name": "reward",
      "outputs": [
        {
          "internalType": "uint256",
          "name": "",
          "type": "uint256"
        }
      ],
      "stateMutability": "view",
      "type": "function"
    },
    {
      "inputs": [],
      "name": "status",
      "outputs": [
        {
          "internalType": "enum Bounty.Status",
          "name": "",
          "type": "uint8"
        }
      ],
      "stateMutability": "view",
      "type": "function"
    },
    {
      "inputs": [
        {
          "internalType": "bytes32",
          "name": "reportHash",
          "type": "bytes32"
        }
      ],
      "name": "submitReport",
      "outputs": [],
      "stateMutability": "nonpayable",
      "type": "function"
    }
  ],
  "bytecode": "0x60806040526040516111e83803806111e88339810160408190526100229161014b565b5f34116100805760405162461bcd60e51b815260206004820152602160248201527f496e73756666696369656e742066756e647320746f206f70656e20626f756e746044820152607960f81b60648201526084015b60405180910390fd5b6001600160a01b0381166100d65760405162461bcd60e51b815260206004820152601860248201527f496e76616c6964206469737075746520636f6e747261637400000000000000006044820152606401610077565b3460018190555f8054336001600160a01b031991821681179092556002805460ff19169055600780546001600160a01b0386169216919091179055604051918252907f5cc937fae61d1ffa904ad783044849b94e0161a56db15f6c6fc66a54f17b6aad9060200160405180910390a250610178565b5f6020828403121561015b575f5ffd5b81516001600160a01b0381168114610171575f5ffd5b9392505050565b611063806101855f395ff3fe608060405234801561000f575f5ffd5b5060043610610106575f3560e01c806371821df91161009e578063cacbf9611161006e578063cacbf96114610233578063ec358f0514610246578063f256330b1461026a578063f585dc571461027d578063fb2ed34514610287575f5ffd5b806371821df9146101bd578063872c5de3146101c6578063a913eb08146101cf578063c942adf7146101d7575f5ffd5b8063248b0656116100d9578063248b06561461014b5780634010b84e146101605780634e7f9b191461018b5780636904c94d146101ab575f5ffd5b806312065fe01461010a578063185c6f841461011f578063200d2ed214610128578063228cb73314610142575b5f5ffd5b475b6040519081526020015b60405180910390f35b61010c60045481565b6002546101359060ff1681565b6040516101169190610e3c565b61010c60015481565b61015e610159366004610e56565b61029a565b005b600754610173906001600160a01b031681565b6040516001600160a01b039091168152602001610116565b61019e610199366004610e56565b610532565b6040516101169190610e81565b5f54610173906001600160a01b031681565b61010c60065481565b61010c60055481565b61015e61062c565b6102226101e5366004610e56565b600360208190525f9182526040909120805460018201546002830154938301546004909301546001600160a01b0390921693909260ff9091169185565b604051610116959493929190610eca565b61015e610241366004610e56565b6107ba565b60025461025890610100900460ff1681565b60405160ff9091168152602001610116565b61015e610278366004610e56565b610aca565b61010c6203f48081565b61015e610295366004610e56565b610c84565b5f546001600160a01b031633146102cc5760405162461bcd60e51b81526004016102c390610f01565b60405180910390fd5b5f6002805460ff16908111156102e4576102e4610e28565b146103015760405162461bcd60e51b81526004016102c390610f49565b8060055481146103535760405162461bcd60e51b815260206004820152601d60248201527f4d757374207265736f6c7665207265706f72747320696e206f7264657200000060448201526064016102c3565b5f82815260036020526040812090600282015460ff16600481111561037a5761037a610e28565b146103c05760405162461bcd60e51b81526020600482015260166024820152755265706f7274206d7573742062652070656e64696e6760501b60448201526064016102c3565b6203f4806006546103d19190610f8a565b421161041f5760405162461bcd60e51b815260206004820152601b60248201527f446973707574652077696e646f77207374696c6c20616374697665000000000060448201526064016102c3565b6002818101805460ff19166001908117909155815460ff61010090910416919061044883610fa3565b91906101000a81548160ff021916908360ff1602179055505060055f81548092919061047390610fbe565b90915550506002805460ff19168117905580546040516001600160a01b039091169084907f67d19636b49381da7c69449c7ad40fdd4961c2823bb449c2ca20c147498b3634905f90a380546040516001600160a01b039091169084907ffd8fb3c1e880315007f9520b97dbfe17dfd3f01a2cc3366472535504b0263c72905f90a380546001546040516001600160a01b039092169181156108fc0291905f818181858888f1935050505015801561052c573d5f5f3e3d5ffd5b50505050565b6105616040805160a0810182525f80825260208201819052909182019081526020015f81526020015f81525090565b60045482106105aa5760405162461bcd60e51b815260206004820152601560248201527414995c1bdc9d08191bd95cc81b9bdd08195e1a5cdd605a1b60448201526064016102c3565b5f82815260036020908152604091829020825160a08101845281546001600160a01b031681526001820154928101929092526002810154919290919083019060ff1660048111156105fd576105fd610e28565b600481111561060e5761060e610e28565b81526003820154602082015260049091015460409091015292915050565b5f546001600160a01b031633146106555760405162461bcd60e51b81526004016102c390610f01565b5f6002805460ff169081111561066d5761066d610e28565b1461068a5760405162461bcd60e51b81526004016102c390610f49565b600254610100900460ff16156106ec5760405162461bcd60e51b815260206004820152602160248201527f43616e6e6f742063616e63656c207769746820616374697665207265706f72746044820152607360f81b60648201526084016102c3565b6203f4806006546106fd9190610f8a565b421161074b5760405162461bcd60e51b815260206004820152601b60248201527f446973707574652077696e646f77207374696c6c20616374697665000000000060448201526064016102c3565b6002805460ff191660011790556040517f86a5139d39ed69a8bd113a46ed8203278c6c3ebed14a2179e9f8989930eb0a15905f90a15f80546040516001600160a01b03909116914780156108fc02929091818181858888f193505050501580156107b7573d5f5f3e3d5ffd5b50565b5f6002805460ff16908111156107d2576107d2610e28565b146107ef5760405162461bcd60e51b81526004016102c390610f49565b5f81815260036020526040902080546001600160a01b031633146108555760405162461bcd60e51b815260206004820152601b60248201527f4f6e6c79207468652068756e7465722063616e2064697370757465000000000060448201526064016102c3565b60028082015460ff16600481111561086f5761086f610e28565b146108bc5760405162461bcd60e51b815260206004820152601760248201527f5265706f7274206d7573742062652072656a656374656400000000000000000060448201526064016102c3565b6203f48081600401546108cf9190610f8a565b42111561091e5760405162461bcd60e51b815260206004820152601a60248201527f446973707574652077696e646f7720686173206578706972656400000000000060448201526064016102c3565b60028101805460ff19166003179055604051339083907f77c89f67950ede876d07995ee2b0dd27ac275c74604d5bafe10149e9d113e9b1905f90a36007546001820154825460405163777e708b60e11b81526004810186905260248101929092526001600160a01b0390811660448301525f92169063eefce116906064016020604051808303815f875af11580156109b8573d5f5f3e3d5ffd5b505050506040513d601f19601f820116820180604052508101906109dc9190610fd6565b9050827f2ffcfee146bc0d5ff304c6b65111a0d485af9456dc64eee7d66ebdcc90b223ea82604051610a0e9190610ffb565b60405180910390a25f816001811115610a2957610a29610e28565b03610ab8576002828101805460ff199081166001179091558154168117905581546040516001600160a01b039091169084907ffd8fb3c1e880315007f9520b97dbfe17dfd3f01a2cc3366472535504b0263c72905f90a381546001546040516001600160a01b039092169181156108fc0291905f818181858888f1935050505015801561052c573d5f5f3e3d5ffd5b50600201805460ff1916600417905550565b5f546001600160a01b03163314610af35760405162461bcd60e51b81526004016102c390610f01565b5f6002805460ff1690811115610b0b57610b0b610e28565b14610b285760405162461bcd60e51b81526004016102c390610f49565b806005548114610b7a5760405162461bcd60e51b815260206004820152601d60248201527f4d757374207265736f6c7665207265706f72747320696e206f7264657200000060448201526064016102c3565b5f82815260036020526040812090600282015460ff166004811115610ba157610ba1610e28565b14610be75760405162461bcd60e51b81526020600482015260166024820152755265706f7274206d7573742062652070656e64696e6760501b60448201526064016102c3565b6002818101805460ff19168217905542600483018190556006558054610100900460ff16906001610c1783610fa3565b91906101000a81548160ff021916908360ff1602179055505060055f815480929190610c4290610fbe565b909155505080546040516001600160a01b039091169084907ffb5fd41f9e094bd7f5a0e542002ca95348c4513e994eeeb0e4ba1ae5187d609a905f90a3505050565b5f6002805460ff1690811115610c9c57610c9c610e28565b14610cb95760405162461bcd60e51b81526004016102c390610f49565b5f546001600160a01b03163303610d125760405162461bcd60e51b815260206004820152601d60248201527f436f6d70616e792063616e6e6f74207375626d6974207265706f72747300000060448201526064016102c3565b6040805160a08101825233815260208082018481525f838501818152426060860152608085018290526004805483526003909452949020835181546001600160a01b0319166001600160a01b0390911617815590516001808301919091559351600282018054949592949193909260ff1990921691908490811115610d9957610d99610e28565b021790555060608201516003820155608090910151600491820155546040513391907ffe73cf9b793e65d9d707a5bfe3063e5f3a58eb52b27a356478c30fc83f5200f2905f90a360048054905f610def83610fbe565b909155505060028054610100900460ff16906001610e0c8361100f565b91906101000a81548160ff021916908360ff1602179055505050565b634e487b7160e01b5f52602160045260245ffd5b6020810160038310610e5057610e50610e28565b91905290565b5f60208284031215610e66575f5ffd5b5035919050565b60058110610e7d57610e7d610e28565b9052565b81516001600160a01b031681526020808301519082015260408083015160a0830191610eaf90840182610e6d565b50606083015160608301526080830151608083015292915050565b6001600160a01b03861681526020810185905260a08101610eee6040830186610e6d565b6060820193909352608001529392505050565b60208082526028908201527f4f6e6c792074686520636f6d70616e792063616e20706572666f726d20746869604082015267399030b1ba34b7b760c11b606082015260800190565b6020808252601390820152722137bab73a3c9036bab9ba1031329037b832b760691b604082015260600190565b634e487b7160e01b5f52601160045260245ffd5b80820180821115610f9d57610f9d610f76565b92915050565b5f60ff821680610fb557610fb5610f76565b5f190192915050565b5f60018201610fcf57610fcf610f76565b5060010190565b5f60208284031215610fe6575f5ffd5b815160028110610ff4575f5ffd5b9392505050565b6020810160028310610e5057610e50610e28565b5f60ff821660ff810361102457611024610f76565b6001019291505056fea2646970667358221220055f47427e3363c1d56aa108fe6fff2d0e43191a2ddfdff61f6b8ca331e91c2764736f6c634300081c0033",
  "linkReferences": {},
  "deployedLinkReferences": {},
  "immutableReferences": {},
  "inputSourceName": "project/contracts/Bounty.sol",
  "buildInfoId": "solc-0_8_28-6ccbee4f91b4bcd3fe4616000964bd903884f935"
}